:100000000C94EF170C9420180C9420180C942018C2
:100010000C9420180C9420180C9420180C94201880
:100020000C9420180C9420180C9420180C94201870
:100030000C9420180C9420180C9420180C94201860
:100040000C9420180C9420180C9420180C94201850
:100050000C9420180C9420180C9420180C947A4AB4
:100060000C9420180C9460450C9437450C9420187F
:100070000C9420180C9420180C9420180C94201820
:100080000C9420180C9420180C9420180C94201810
:100090000C9420180C9420180C9420180C94782A96
:1000A0000C9420180C9420180C9420180C942018F0
:1000B0000C9420180C9420180C9420180C942018E0
:1000C0000C9420180C9420180C9420180C942018D0
:1000D0000C9420180C9420180C9420180C942018C0
:1000E0000C9420184A464D463C46404646468446B7
:1000F000514655465B465F46634669466D467146C6
:10010000844677467B467F4658495D4962496C493B
:100110007649EF498049884990499A49A449AE49AE
:10012000BD49C749EF49D149DB49E549446F6E658F
:100130002100526F756E646564207265637473206C
:100140002866696C6C65642920202000526F756EEA
:1001500064656420726563747320286F75746C69BC
:100160006E6529202000547269616E676C6573208A
:100170002866696C6C6564292020202020202000DE
:10018000547269616E676C657320286F75746C6951
:100190006E65292020202020200052656374616E46
:1001A000676C6573202866696C6C65642920202063
:1001B000202020004C696E65732020202020202004
:1001C00020202020202020202020202020005465D6
:1001D0007874202020202020202020202020202073
:1001E000202020202020200053637265656E206649
:1001F000696C6C202020202020202020202020201E
:10020000200042656E63686D61726B2020202020A3
:10021000202020202020202020202054696D6520CF
:10022000286D6963726F7365636F6E647329000074
:100230000000000500010000020D0602F4040005A4
:10024000040601F407000A0C0A00F5160009100A5A
:1002500001F32800100D1001F442000B0D0C01F405
:10026000540002040401F4550004110601F45E0078
:1002700004110601F4670005050701F46B00060888
:100280000B03F9710002040502007200040106016B
:10029000FC730002010501007400050D0500F47DEA
:1002A00000080D0A01F48A00040D0A03F491000904
:1002B0000D0A01F4A000080D0A01F4AD00070D0AB3
:1002C00002F4B900090D0A01F4C800090D0A01F48D
:1002D000D700080D0A00F4E400090D0A01F4F30048
:1002E000080D0A01F40001020A0501F70301030CDD
:1002F0000501F8080109090B01F8130109040B01B4
:10030000FB180109090B01F82301090D0A01F43258
:100310000111101201F454010C0D0C00F468010BD2
:100320000D0C01F47A010B0D0D01F48C010B0D0D78
:1003300001F49E01090D0B01F4AD01080D0B01F450
:10034000BA010C0D0E01F4CE010B0D0D01F4E0010C
:10035000020D0502F4E401070D0A01F4F0010B0D92
:100360000C01F40202080D0A01F40F020D0D0F0139
:10037000F425020B0D0D01F437020D0D0E01F44DA5
:10038000020A0D0C01F45E020D0E0E01F475020C52
:100390000D0D01F489020A0D0C01F49A02090D0BEE
:1003A00001F4A9020B0D0D01F4BB020B0D0C00F4BE
:1003B000CD02110D1100F4E9020C0D0C00F4FD0248
:1003C0000C0D0C00F411030A0D0B01F422030311B0
:1003D0000501F42903050D0500F43203031105009E
:1003E000F4390307070801F440030A010A00034235
:1003F0000304030500F44403090A0A01F750030942
:100400000D0A01F45F03080A0901F76903080D0AE0
:1004100001F47603080A0A01F78003040D0501F4CC
:100420008703080E0A01F79503080D0A01F4A203D9
:10043000020D0401F4A60304110400F4AF03090D36
:100440000901F4BE03020D0401F4C2030D0A0F01F9
:10045000F7D303080A0A01F7DD03080A0A01F7E7E0
:1004600003090D0A01F7F603080D0A01F703040555
:100470000A0601F70A04080A0901F71404040C0526
:1004800001F51A04080A0A01F72404090A0900F709
:1004900030040D0A0D00F74104080A0900F74B0467
:1004A000090E0900F75B04070A0901F76404041147
:1004B0000601F46D0402110402F472040411060131
:1004C000F47B0407030901F9FFFFF8C0DEF72009F8
:1004D000864191FF1304C320C8FF89826190101FD9
:1004E00014DA3D1E8340781708F47A3533F0402043
:1004F0003810EC20C620C640C6406C803900013C54
:100500000277026304630477083C0E0660CC19810D
:10051000E0180F0336C2D8730631E3C4FE13266C0D
:10052000CCCCC46623108C4663333332664C8025B2
:100530007EA50030C33F30C30CD6F0C00844211064
:1005400084421108003C6642C3C3C3C3C3C3C34251
:10055000663C113F33333333303E31B07830181CB2
:100560001C1C1818100807F83C66C3C303061C07B8
:1005700003C3C3663C0C187162C9A346FE18306001
:10058000C07F2010080807F38C030180F06C63E043
:100590001E3198780C06F38D83C1E0D06C63E0FFC8
:1005A000030206040C081818181030303E31B078D9
:1005B0003C1B18F8C6C1E0F06C63E03C66C2C3C3E4
:1005C000C3673B0303C2663CC00030C0000064A0A8
:1005D0000081C78E0C0780700E0180FF80001FF025
:1005E00000700E01C0183871C080003E31B0783004
:1005F00018183818180C0000018003F0060E0601C8
:100600008600661DBB31CF18C79863CC31E611B3A5
:1006100099CCF7860001800070400FE00600F00FD3
:10062000009019819810830C3FC204606606C030A8
:10063000FF183303606C0D833FC606C0780F01E0DE
:100640006FF81F861981A03C0180300600C0680D3C
:10065000831861F0FF183303603C0780F01E03C06D
:10066000780F0360CFF0FFE030180C0603FD80C068
:100670006030180FF8FFC0C0C0C0C0FEC0C0C0C00E
:10068000C0C00F830E606603C00C00C1FC03C036FF
:100690000360730F0F10C0780F01E03C0780FFFE6E
:1006A00003C0780F01E03C06FFFFFFC0060C1830C6
:1006B00060C183078F1E2780C0D8330C630CC1B87C
:1006C0003F0730C3186306606C0CC0C0C0C0C0C018
:1006D000C0C0C0C0C0C0FFE03F01FC1FE0FD05EC92
:1006E0006F637913CD9E6CF1478E3C7180E07C0F77
:1006F000C1E83D8798F11E33C3786F07E07C0E0F89
:100700008183180CC06C01E00F007803C01B0198B6
:100710000C60C0F800FF306C0F03C0F06FF300C036
:10072000300C0300C0000F8183180CC06C01E00F77
:10073000007803C01B01986C60C0FB0008FF8C0EA2
:10074000C06C06C06C0CFF8C0EC06C06C06C06C082
:10075000703F186C0F03C01E01F00E00F03C0D86B8
:100760003F00FF86030180C06030180C0603018043
:10077000C0C0780F01E03C0780F01E03C0780F0175
:10078000B061F0C06C0D8110630C610460CC190184
:10079000603C070060C18130E19870CC286626215A
:1007A0001330C8986C4C14340A1A0707030380816D
:1007B0008060630C30C1980F00E00600F0190198CA
:1007C00030C60E6060C0360630C30C1981D80F00E9
:1007D000600600600600600600FFC060300C060383
:1007E00001C0603018060300FFC0FB6DB6DB6DB6BC
:1007F000E0841084108410841080EDB6DB6DB6DBCD
:10080000E03060A244D8A180FFC0C6307E71B0C085
:1008100060F3DB0D86C73DC0C060301BCE360F07CE
:1008200083C1E0F07C6DE03C66C3C0C0C0C0C3665D
:100830003C0303033B67C3C3C3C3C3C3673B3C66FB
:10084000C3C3FFC0C0C3663C366F66666666603B66
:1008500067C3C3C3C3C3C3673B0303C67CC0C0C075
:10086000DEE3C3C3C3C3C3C3C3C3C3FFFFC03003FB
:10087000333333333333E0C06030184C466361F0B8
:10088000EC6231986C30FFFFFFC0DEF71CF0C786CA
:100890003C31E18F0C7863C31E18C0DEE3C3C3C3D1
:1008A000C3C3C3C3C33C66C3C3C3C3C3C3663CDEC5
:1008B00071B0783C1E0F0783E36F30180C003B6764
:1008C000C3C3C3C3C3C3673B030303DF318C6318D4
:1008D000C6003EE3C0C0E03C07C3E37E66F6666642
:1008E0006667C3C3C3C3C3C3C3C3C77BC1A098CC1C
:1008F0004221B0D0281C0C00C61E3891C4CA66D351
:1009000016D0A6871C38C0C6004362361C181C3C93
:10091000266243C12198CC4261B0D0381C0C06033A
:10092000010300FE0C30C1861820C1FC3666666EDD
:10093000CE66666630FFFFFFFFC0C6666667376635
:100940006666C0612438C8042F02207E16000000AD
:100950000000000000000000000000000000000097
:100960000000000000000000000000000000000087
:100970000000000000000000000000000000030074
:100980000000000000000000000000000000000067
:1009900000000000000000000000000000000E0049
:1009A0000000000000000000000000000000000047
:1009B00000000000000000000000000000003C00FB
:1009C0000000000000000000000000000000000027
:1009D000000000000000000000000000000078009F
:1009E0000000000000000000000000000000000007
:1009F0000000000000000000000000000001F800FE
:100A000000000000000000000000000000000000E6
:100A10000000000000000000000000000007F000DF
:100A200000000000000000000000000000000000C6
:100A3000000000000000000000000000000FE000C7
:100A400000000000000000000000000000000000A6
:100A5000000000000000000000000000003FE00077
:100A60000000000000000000000000000000000086
:100A7000000000000000000000000000007FC00037
:100A80000000000000000000000000000000000066
:100A900000000000000000000000000001FF8000D6
:100AA0000000000000000000000000000000000046
:100AB00000000000000000000000000003FF8000B4
:100AC0000000000000000000000000000000000026
:100AD0000000000000000000000000000FFF000008
:100AE0000000000000000000000000000000000006
:100AF0000000000000000000000000001FFF0000D8
:100B000000000000000000000000000000000000E5
:100B10000000000000000000000000007FFE000058
:100B200000000000000000000000000000000000C5
:100B3000000000000000000000000000FFFE0000B8
:100B400000000000000000000000000000000000A5
:100B5000000000000000000000000003FFFC000097
:100B60000000000000000000000000000000000085
:100B7000000000000000000000000007FFFC000073
:100B80000000000000000000000000000000000065
:100B900000000000000000000000000FFFF800004F
:100BA0000000000000000000000000000000000045
:100BB00000000000000000000000003FFFF80000FF
:100BC0000000000000000000000000000000000025
:100BD00000000000000000000000007FFFF00000A7
:100BE0000000000000000000000000000000000005
:100BF0000000000000000000000000FFFFF0000007
:100C000000000000000000000000000000000000E4
:100C10000000000000000000000003FFFFF00000E3
:100C200000000000000000000000000000000000C4
:100C30000000000000000000000007FFFFE00000CF
:100C400000000000000000000000000000000000A4
:100C5000000000000000000000000FFFFFE00000A7
:100C60000000000000000000000000000000000084
:100C7000000000000000000000003FFFFFE0000057
:100C80000000000000000000000000000000000064
:100C9000000000000000000000007FFFFFC0000017
:100CA0000000000000000000000000000000000044
:100CB00000000000000000000000FFFFFFC0000077
:100CC0000000000000000000000000000000000024
:100CD00000000000000000000001FFFFFFC0000056
:100CE0000000000000000000000000000000000004
:100CF00000000000000000000003FFFFFFC0000034
:100D000000000000000000000000000000000000E3
:100D10000000000000000000000FFFFFFFC0000007
:100D200000000000000000000000000000000000C3
:100D30000000000000000000001FFFFFFF80000017
:100D400000000000000000000000000000000000A3
:100D50000000000000000000003FFFFFFF800000D7
:100D60000000000000000000000000000000000083
:100D70000000000000000000007FFFFFFF80000077
:100D80000000000000000000000000000000000063
:100D9000000000000000000000FFFFFFFF800000D7
:100DA0000000000000000000000000000000000043
:100DB000000000000000000001FFFFFFFF800000B6
:100DC0000000000000000000000000000000000023
:100DD000000000000000000003FFFFFFFF80000094
:100DE0000000000000000000000000000000000003
:100DF000000000000000000007FFFFFFFF80000070
:100E000000000000000000000000000000000000E2
:100E100000000000000000000FFFFFFFFF000000C7
:100E200000000000000000000000000000000000C2
:100E300000000000000000001FFFFFFFFF00000097
:100E400000000000000000000000000000000000A2
:100E500000000000000000003FFFFFFFFF00000057
:100E60000000000000000000000000000000000082
:100E700000000000000000007FFFFFFFFF000000F7
:100E80000000000000000000000000000000000062
:100E90000000000000000000FFFFFFFFFF00000057
:100EA0000000000000000000000000000000000042
:100EB0000000000000000001FFFFFFFFFF00000036
:100EC0000000000000000000000000000000000022
:100ED0000000000000000003FFFFFFFFFF00000014
:100EE0000000000000000000000000000000000002
:100EF0000000000000000007FFFFFFFFFF000000F0
:100F000000000000000000000000000000000000E1
:100F1000000000000000000FFFFFFFFFFF000000C7
:100F200000000000000000000000000000000000C1
:100F3000000000000000001FFFFFFFFFFF00000097
:100F400000000000000000000000000000000000A1
:100F5000000000000000001FFFFFFFFFFF00000077
:100F60000000000000000000000000000000000081
:100F7000000000000000003FFFFFFFFFFF00000037
:100F80000000000000000000000000000000000061
:100F9000000000000000007FFFFFFFFFFF000000D7
:100FA0000000000000000000000000000000000041
:100FB00000000000000000FFFFFFFFFFFF00000037
:100FC0000000000000000000000000000000000021
:100FD00000000000000001FFFFFFFFFFFF00000016
:100FE0000000000000000000000000000000000001
:100FF00000000000000001FFFFFFFFFFFF80000076
:1010000000000000000000000000000000000000E0
:1010100000000000000003FFFFFFFFFFFF80000053
:1010200000000000000000000000000000000000C0
:1010300000000000000007FFFFFFFFFFFF8000002F
:1010400000000000000000000000000000000000A0
:101050000000000000000FFFFFFFFFFFFF80000007
:101060000000000000000000000000000000000080
:101070000000000000000FFFFFFFFFFFFF800000E7
:101080000000000000000000000000000000000060
:101090000000000000001FFFFFFFFFFFFF800000B7
:1010A0000000000000000000000000000000000040
:1010B0000000000000003FFFFFFFFFFFFF80000077
:1010C0000000000000000000000000000000000020
:1010D0000000000000003FFFFFFFFFFFFF80000057
:1010E0000000000000000000000000000000000000
:1010F0000000000000007FFFFFFFFFFFFFC00000B7
:1011000000000000000000000000000000000000DF
:10111000000000000000FFFFFFFFFFFFFFC0000016
:1011200000000000000000000000000000000000BF
:10113000000000000000FFFFFFFFFFFFFFC00000F6
:10114000000000000000000000000000000000009F
:10115000000000000001FFFFFFFFFFFFFFC00000D5
:10116000000000000000000000000000000000007F
:10117000000000000001FFFFFFFFFFFFFFC00000B5
:10118000000000000000000000000000000000005F
:10119000000000000003FFFFFFFFFFFFFFC0000093
:1011A000000000000000000000000000000000003F
:1011B000000000000003FFFFFFFFFFFFFFE0000053
:1011C000000000000000000000000000000000001F
:1011D000000000000007FFFFFFFFFFFFFFE000002F
:1011E00000000000000000000000000000000000FF
:1011F000000000000007FFFFFFFFFFFFFFE000000F
:1012000000000000000000000000000000000000DE
:1012100000000000000FFFFFFFFFFFFFFFE00000E6
:1012200000000000000000000000000000000000BE
:1012300000000000000FFFFFFFFFFFFFFFE00000C6
:10124000000000000000000000000000000000009E
:1012500000000000001FFFFFFFFFFFFFFFF0000086
:10126000000000000000000000000000000000007E
:1012700000000000001FFFFFFFFFFFFFFFF0000066
:10128000000000000000000000000000000000005E
:1012900000000000001FFFFFFFFFFFFFFFF0000046
:1012A000000000000000000000000000000000003E
:1012B00000000000003FFFFFFFFFFFFFFFF0000006
:1012C000000000000000000000000000000000001E
:1012D00000000000003FFFFFFFFFFFFFFFF80000DE
:1012E00000000000000000000000000000000000FE
:1012F00000000000007FFFFFFFFFFFFFFFF800007E
:1013000000000000000000000000000000000000DD
:1013100000000000007FFFFFFFFFFFFFFFF800005D
:1013200000000000000000000000000000000000BD
:1013300000000000007FFFFFFFFFFFFFFFF800003D
:10134000000000000000000000000000000000009D
:101350000000000000FFFFFFFFFFFFFFFFF800009D
:10136000000000000000000000000000000000007D
:101370000000000000FFFFFFFFFFFFFFFFFC000079
:10138000000000000000000000000000000000005D
:101390000000000000FFFFFFFFFFFFFFFFFC000059
:1013A000000000000000000000000000000000003D
:1013B0000000000000FFFFFFFFFFFFFFFFFC000039
:1013C000000000000000000000000000000000001D
:1013D0000000000001FFFFFFFFFFFFFFFFFC000018
:1013E00000000000000000000000000000000000FD
:1013F0000000000001FFFFFFFFFFFFFFFFFE0000F6
:1014000000000000000000000000000000000000DC
:101410000000000001FFFFFFFFFFFFFFFFFE0000D5
:1014200000000000000000000000000000000000BC
:101430000000000001FFFFFFFFFFFFFFFFFE0000B5
:10144000000000000000000000000000000000009C
:101450000000000001FFFFFFFFFFFFFFFFFE000095
:10146000000000000000000000000000000000007C
:101470000000000001FFFFFFFFFFFFFFFFFF000074
:10148000000000000000000000000000000000005C
:101490000000000001FFFFFFFFFFFFFFFFFF000054
:1014A000000000000000000000000000000000003C
:1014B0000000000003FFFFFFFFFFFFFFFFFF000032
:1014C000000000000000000000000000000000001C
:1014D0000000000003FFFFFFFFFFFFFFFFFF000012
:1014E00000000000000000000000000000000000FC
:1014F0000000000003FFFFFFFFFFFFFFFFFF800072
:1015000000000000000000000000000000000000DB
:101510000000000003FFFFFFFFFFFFFFFFFF800051
:1015200000000000000000000000000000000000BB
:101530000000000003FFFFFFFFFFFFFFFFFF800031
:10154000000000000000000000000000000000009B
:101550000000000003FFFFFFFFFFFFFFFFFF800011
:10156000000000000000000000000000000000007B
:101570000000000003FFFFFFFFFFFFFFFFFF8000F1
:10158000000000000000000000000000000000005B
:101590000000000003FFFFFFFFFFFFFFFFFF8000D1
:1015A000000000000000000000000000000000003B
:1015B0000000000001FFFFFFFFFFFFFFFFFF8000B3
:1015C000000000000000000000000000000000001B
:1015D0000000000001FFFFFFFFFFFFFFFFFF800093
:1015E00000000000000000000000000000000000FB
:1015F0000000000001FFFFFFFFFFFFFFFFFF800073
:1016000000000000000000000000000000000000DA
:101610000000000001FFFFFFFFFFFFFFFFFF800052
:1016200000000000000000000000000000000000BA
:101630000000000001FFFFFFFFFFFFFFFFFF800032
:10164000000000000000000000000000000000009A
:101650000000000001FFFFFFFFFFFFFFFFFF800012
:10166000000000000000000000000000000000007A
:101670000000000000FFFFFFFFFFFFFFFFFF8000F3
:10168000000000000000000000000000000000005A
:101690000000000000FFFFFFFFFFFFFFFFFF8000D3
:1016A000000000000000000000000000000000003A
:1016B0000000000000FFFFFFFFFFFFFFFFFF000033
:1016C000000000000000000000000000000000001A
:1016D0000000000000FFFFFFFFFFFFFFFFFF000013
:1016E00000000000000000000000000000000000FA
:1016F00000000000007FFFFFFFFFFFFFFFFF000073
:1017000000000000000000000000000000000000D9
:1017100000000000007FFFFFFFFFFFFFFFFF000052
:1017200000000000000000000000000000000000B9
:1017300000000000007FFFFFFFFFFFFFFFFE000033
:101740000000000000000000000000000000000099
:1017500000000000003FFFFFFFFFFFFFFFFE000053
:101760000000000000000000000000000000000079
:1017700000000000003FFFFFFFFFFFFFFFFE000033
:101780000000000000000000000000000000000059
:1017900000000000001FFFFFFFFFFFFFFFFC000035
:1017A0000000000000000000000000000000000039
:1017B00000000000001FFFFFFFFFFFFFFFFC000015
:1017C0000000000000000000000000000000000019
:1017D00000000000000FFFFFFFFFFFFFFFF8000009
:1017E00000000000000000000000000000000000F9
:1017F00000000000000FFFFFFFFFFFFFFFF80000E9
:1018000000000000000000000000000000000000D8
:10181000000000000007FFFFFFFFFFFFFFF00000D8
:1018200000000000000000000000000000000000B8
:10183000000000000003FFFFFFFFFFFFFFF00000BC
:101840000000000000000000000000000000000098
:10185000000000000003FFFFFFFFFFFFFFE00000AC
:101860000000000000000000000000000000000078
:10187000000000000001FFFFFFFFFFFFFFC00000AE
:101880000000000000000000000000000000000058
:10189000000000000000FFFFFFFFFFFFFF800000CF
:1018A0000000000000000000000000000000000038
:1018B0000000000000007FFFFFFFFFFFFF8000002F
:1018C0000000000000000000000000000000000018
:1018D0000000000000003FFFFFFFFFFFFF000000CF
:1018E00000000000000000000000000000000000F8
:1018F0000000000000001FFFFFFFFFFFFE000000D0
:1019000000000000000000000000000000000000D7
:101910000000000000000FFFFFFFFFFFFC000000C1
:1019200000000000000000000000000000000000B7
:1019300000000000000007FFFFFFFFFFF8000000AD
:101940000000000000000000000000000000000097
:1019500000000000000003FFFFFFFFFFE0000000A9
:101960000000000000000000000000000000000077
:1019700000000000000001FFFFFFFFFFC0000000AB
:101980000000000000000000000000000000000057
:10199000000000000000007FFFFFFFFF00000000CC
:1019A0000000000000000000000000000000000037
:1019B000000000000000003FFFFFFFFE00000000ED
:1019C0000000000000000000000000000000000017
:1019D000000000000000000FFFFFFFF80000000003
:1019E00000000000000000000000000000000000F7
:1019F0000000000000000003FFFFFFE00000000007
:101A000000000000000000000000000000000000D6
:101A100000000000000000007FFFFF000000000049
:101A200000000000000000000000000000000000B6
:101A3000000000000000000007FFF80000000000A8
:101A40000000000000000000000000000000000096
:101A50000000000000000000000000000000000086
:101A60000000000000000000000000000000000076
:101A70000000000000000000000000000000000066
:101A80000000000000000000000000000000000056
:101A90000000000000000000000000000000000046
:101AA0000000000000000000000000000000000036
:101AB0000000000000000000000000000000000026
:101AC0000000000000000000000000000000000016
:101AD0000000000000000000000000000000000006
:101AE00000000000000000000000000000000000F6
:101AF00000000000000000000000000000000000E6
:101B000000000000000000000000000000000000D5
:101B100000000000000000000000000000000000C5
:101B200000000000000000000000000000000000B5
:101B300000000000000000000000000000000000A5
:101B40000000000000000000000000000000000095
:101B50000000000000000000000000000000000085
:101B60000000000000000000000000000000000075
:101B70000000000000000000000000000000000065
:101B80000000000000000000000000000000000055
:101B90000000000000000000000000000000000045
:101BA000000000000000D80000000000000000005D
:101BB0000000000000000000000000000000000025
:101BC0000000000000010400000000000000000010
:101BD0000000000000000000000000000000000005
:101BE00000001F000002D200000000000000000002
:101BF0007FFE0000000000000000007F00000000E9
:101C00000007FFF000029200000000000000000347
:101C1000FFFFC00000000000000003FF0000000004
:101C2000001FFFFE0002E200000000000000000FA5
:101C3000FFFFF8000000000000000FFF00000000A0
:101C4000007FFFFF00029200000000000000003F44
:101C5000FFFFFC000000000000003FFF000000004C
:101C600001FFFFFFC001040000000000000000FFB2
:101C7000FFFFFF000000000000007FFF00000000E9
:101C800007FFFFFFE000880000000000000001FFE8
:101C9000F81FFF80000000000001FFFC00000000B2
:101CA0000FFF807FF000200000000000000003FF15
:101CB0008001FFC0000000000003FF800000000062
:101CC0001FFC000FE000000000000000000007FE05
:101CD00000003FF0000000000007FE0000000000D0
:101CE0003FE00003C00000000000000000000FF80B
:101CF00000000FF800000000000FF80000000000D6
:101D00007FC00001800000000000000000001FE014
:101D1000000007F800000000001FE00000000000C5
:101D2000FF000000000000000000000000003FC0B5
:101D3000000003FC00000000003FC00000000001A4
:101D4000FE000000000000000000000000007F8096
:101D5000000001FE00000000003F800000000003C2
:101D6000FC000000000000000000000000007F00F8
:101D7000000000FF00000000007F000000000003E2
:101D8000F800000000000000000000000000FE005D
:101D90000000007F0000000000FE000000000007BF
:101DA000F000000000000000000000000000FC0047
:101DB0000000003F8000000000FC00000000000761
:101DC000E000000000000000000000000001F8003A
:101DD0000000001F8000000001FC00000000000F58
:101DE000E000000000000000000000000001F8001A
:101DF0000000001FC000000001F800000000000FFC
:101E0000C000000000000000000000000003F0001F
:101E10000000000FC000000003F800000000001FD9
:101E20008000000000000000000000000003F0003F
:101E30000000000FC000000003F000000000001FC1
:101E40008000000000000000000000000003E0002F
:101E500000000007E000000003F000000000001F89
:101E60008000000000000000000000000007E0000B
:101E700000000007E000000007E000000000003F55
:101E80000000000000000000000000000007E0006B
:101E900000000007E000000007E000000000003F35
:101EA0000000000000000000000000000007E0004B
:101EB00000000003E000000007E000000000003F19
:101EC0000000000000000000000000000007C0004B
:101ED00000000003F000000007C000000000003F09
:101EE0000000000000000000000000000007C0002B
:101EF00000000003F000000007C000000000003EEA
:101F0000000000000000000000000000000FC00002
:101F100000000003F000000007C000000000003EC9
:101F2000000000000000000000000000000FC000E2
:101F300000000003F000000007C000000000003EA9
:101F4000000000000000000000000000000FC000C2
:101F500000000003F000000007C000000000003E89
:101F6000000000000000000000000000000FC000A2
:101F700000000003F000000007C000000000003E69
:101F8000000000000000000000000000000FC00082
:101F900000000003F000000007C000000000003E49
:101FA0000000000000000000000000000007C0006A
:101FB00000000003F000000007C000000000003E29
:101FC0000000000000000000000000000007C0004A
:101FD00000000003F000000007C000000000003F08
:101FE0000000000000000000000000000007E0000A
:101FF00000000003F000000007C000000000003FE8
:102000000000000000000000000000000007E000E9
:1020100000000007F000000007C000000000003FC3
:102020000000000000000000000000000007E000C9
:1020300000000007F000000007C000000000001FC3
:102040000000000000000000000000000003F0009D
:1020500000000007F000000007C000000000001FA3
:102060008000000000000000000000000003F000FD
:102070000000000FF000000007C000000000001F7B
:102080008000000000000000000000000003F000DD
:102090000000000FF000000007C000000000000F6B
:1020A000C000000000000000000000000001F80077
:1020B0000000001FF000000007C000000000000F3B
:1020C000C000000000000000000000000001FC0053
:1020D0000000001FF000000007C000000000000723
:1020E000E000000000000000000000000000FC0014
:1020F0000000003FF000000007C0000000000007E3
:10210000F000000000000000000000000000FE00E1
:102110000000007FF000000007C000000000000386
:10212000F8000000000000000000000000007F0038
:10213000000000FFF000000007C0000000000003E6
:10214000F8000000000000000000000000003F80D8
:10215000000001FFF000000007C0000000000001C7
:10216000FC000000000000000000000000003FC074
:10217000000003FFF000000007C0000000000000A6
:10218000FF000000000000000000000000001FE051
:10219000000007FBF000000007C000000000000086
:1021A0007F800001800000000000000000000FF8A8
:1021B00000001FF3F000000007C000000000000056
:1021C0007FE00003C000000000000000000007FEE8
:1021D00000007FE3F000000007C0000000000000E6
:1021E0003FF80007E000000000000000000003FFCF
:1021F0008001FFC3F000000007C0000000000000E5
:102200000FFE003FF000000000000000000001FF92
:10221000FE7FFF83F000000007C000000000000008
:1022200007FFFFFFE0000000000000000000007F4B
:10223000FFFFFF03F000000007C0000000000000E7
:1022400003FFFFFFC0000000000000000000003F8F
:10225000FFFFFC03F000000007C0000000000000CA
:1022600000FFFFFF80000000000000000000000FE2
:10227000FFFFF003F000000007C0000000000000B6
:10228000003FFFFE00000000000000000000000111
:10229000FFFFC003F000000007C0000000000000C6
:1022A0000007FFF800000000000000000000000030
:1022B0003FFC0000000000000000000000000000E3
:1022C0000000FFC00000000000000000000000004F
:1022D00000000000000000000000000000000000FE
:1022E00000000000000000000000000000000000EE
:1022F00000000000000000000000000000000000DE
:1023000000000000000000000000000000000000CD
:1023100000000000000000000000000000000000BD
:1023200000000000000000000000000000000000AD
:10233000000000000000000000000000000000009D
:10234000000000000000000000000000000000008D
:10235000000000000000000000000000000000007D
:10236000000000000000000000000000000000006D
:10237000000000000000000000000000000000005D
:10238000000000000000000000000000000000004D
:10239000000000000000000000000000000000003D
:1023A000000000000000000000000000000000002D
:1023B000000000000000000000000000000000001D
:1023C000000000000000000000000000000000000D
:1023D00000000000000000000000000000000000FD
:1023E00000000000000000000000000000000000ED
:1023F00000000000000000000000000001000000DC
:1024000000000000000000000000000000000000CC
:1024100000000000001000000000000001000000AB
:10242000000000000000000000000000000000208C
:10243000000000000010000000000000010000008B
:10244000000000000000000000000000000000206C
:102450000000080000100000000000000100000063
:10246000000000000000000000000000001C073C0D
:1024700000070F0F0390087078781C063970070763
:10248000039C0703C07000000000000000631820D8
:102490009048CC198470318880CC230CC18808986E
:1024A00084F2198661888400000000000041102039
:1024B000909068204810230481024190810C1030D4
:1024C0004861304812048400000000000080A02011
:1024D000909028204810420481024091010410206D
:1024E0002821204812048400000000000080A02061
:1024F00089A0203FD01043FE79FE80910104102076
:102500002821200812008400000000000080A02084
:102510008920202008104200090040810104102079
:102520002821204812028400000000000041902071
:1025300085106020081042000500408081041030A2
:102540004821204812028400000000000063982403
:102550008608E5900460410008802390C1040818B3
:10256000C82130843202CC0000000000001C871813
:102570000207A30F03C000F0F0781E003900070F18
:1025800008002F03C0007C000000000000000000D5
:10259000000000000000000000000000000000003B
:1025A0000000200000000400000000000000000007
:1025B000000000000000000000000000000000001B
:1025C00000002000000004000000000000000000E7
:1025D00000000000000000000000000000000000FB
:1025E0000000200000000C000000000000000000BF
:1025F00000000000000000000000000000000000DB
:102600000000200000001800000000000000000092
:1026100000000000000000000000000000000000BA
:1026200000000000000000000000000000000000AA
:10263000000000000000000000000000000000009A
:10264000000000000000000000000000000000008A
:102940000000000000000000000000000001021074
:1029500020200808102040102040800201020108B9
:102960000402010102040810204080804020100869
:1029700004020180040201804020100804020108C2
:102980000402010102040810204080010204081022
:1029900020408000002200250028002B002E00315E
:1029A00000340002010000050108010B01050505C6
:1029B00005070508080808020202020A0A080804B6
:1029C00004040401010101010101010303030303E4
:1029D000030303040707070C0C0C0C0C0C0C0C0273
:1029E00002020206060606060606060B0B0B0B0B7A
:1029F0000B0B0BEF03038002CF0300C130ED046427
:102A0000031281E803850078CB05392C003402F7E6
:102A10000120EA020000C00123C10110C5023E28C6
:102A2000C701863601483701003A0155B102001846
:102A3000B603088227F20100260101E00F0F312BB7
:102A40000C0E084EF1370710030E0900E10F000EBF
:102A50001403110731C148080F0C31360F118029BA
:102A6000800000002100240027002A002D003000F3
:102A7000330001010000040107010A0100002000E9
:102A80002300260029002C002F0032000001000046
:102A900003010601090100000A0B02090C0D0E08D2
:102AA0000703040100000000000000000000000017
:102AB0000000000000000000000000000000000016
:102AC00000001211100000000000000000000000D3
:102AD00000000000000000000000000000000000F6
:102AE000003E5B4F5B3E3E6B4F6B3E1C3E7C3E1C94
:102AF000183C7E3C181C577D571C1C5E7F5E1C00DA
:102B0000183C1800FFE7C3E7FF0018241800FFE790
:102B1000DBE7FF30483A060E2629792926407F0553
:102B20000507407F05253F5A3CE73C5A7F3E1C1C69
:102B300008081C1C3E7F14227F22145F5F005F5F29
:102B400006097F017F006689956A60606060609415
:102B5000A2FFA29408047E040810207E201008081A
:102B60002A1C08081C2A08081E101010100C1E0C25
:102B70001E0C30383E3830060E3E0E0600000000B7
:102B80000000005F00000007000700147F147F149E
:102B9000242A7F2A122313086462364956205000E3
:102BA00008070300001C2241000041221C002A1CCF
:102BB0007F1C2A08083E08080080703000080808BA
:102BC0000808000060600020100804023E514945DA
:102BD0003E00427F400072494949462141494D33F8
:102BE0001814127F1027454545393C4A494931415F
:102BF000211109073649494936464949291E00002D
:102C00001400000040340000000814224114141481
:102C10001414004122140802015909063E415D596D
:102C20004E7C1211127C7F494949363E4141412276
:102C30007F4141413E7F494949417F090909013EA0
:102C4000414151737F0808087F00417F41002040C7
:102C5000413F017F081422417F404040407F021CD9
:102C6000027F7F0408107F3E4141413E7F090909F0
:102C7000063E4151215E7F091929462649494932BC
:102C800003017F01033F4040403F1F2040201F3F82
:102C90004038403F63140814630304780403615907
:102CA000494D43007F414141020408102000414149
:102CB000417F0402010204404040404000030708F5
:102CC0000020545478407F284444383844444428F1
:102CD000384444287F385454541800087E09021898
:102CE000A4A49C787F0804047800447D4000204020
:102CF000403D007F1028440000417F40007C047864
:102D000004787C080404783844444438FC182424AB
:102D10001818242418FC7C0804040848545454242B
:102D200004043F44243C4040207C1C2040201C3CA8
:102D30004030403C44281028444C9090907C44649F
:102D4000544C440008364100000077000000413632
:102D5000080002010204023C2623263C1EA1A161B8
:102D6000123A4040207A38545455592155557941EA
:102D70002254547842215554784020545579400CBF
:102D80001E527212395555555939545454593955A2
:102D90005454580000457C410002457D42000145E5
:102DA0007C407D1211127DF0282528F07C54554579
:102DB000002054547C547C0A097F493249494932E5
:102DC0003A4444443A324A4848303A4141217A3AF6
:102DD00042402078009DA0A07D3D4242423D3D40C2
:102DE00040403D3C24FF2424487E4943662B2FFC71
:102DF0002F2BFF0929F620C0887E0903205454791F
:102E0000410000447D413048484A32384040227AEF
:102E1000007A0A0A727D0D19317D2629292F28266C
:102E20002929292630484D40203808080808080874
:102E30000808382F10C8ACBA2F102834FA00007BCD
:102E4000000008142A142222142A140855005500E0
:102E500055AA55AA55AAFF55FF55FF000000FF00CF
:102E6000101010FF00141414FF001010FF00FF10CA
:102E700010F010F0141414FC001414F700FF0000FC
:102E8000FF00FF1414F404FC141417101F10101F7B
:102E9000101F1414141F00101010F0000000001F69
:102EA000101010101F10101010F010000000FF1074
:102EB0001010101010101010FF10000000FF140070
:102EC00000FF00FF00001F10170000FC04F41414A2
:102ED0001710171414F404F40000FF00F71414146E
:102EE00014141414F700F7141414171410101F10EE
:102EF0001F141414F4141010F010F000001F101F11
:102F00000000001F14000000FC140000F010F0107E
:102F100010FF10FF141414FF141010101F000000F5
:102F200000F010FFFFFFFFFFF0F0F0F0F0FFFFFFF9
:102F30000000000000FFFF0F0F0F0F0F3844443850
:102F400044FC4A4A4A347E02020606027E027E029F
:102F500063554941633844443C04407E201E2006AA
:102F6000027E020299A5E7A5991C2A492A1C4C72E7
:102F700001724C304A4D4D303048784830BC625A6E
:102F8000463D3E494949007E0101017E2A2A2A2AFE
:102F90002A44445F444440514A444040444A5140DA
:102FA0000000FF0103E080FF000008086B6B08369B
:102FB00012362436060F090F06000018180000000C
:102FC0001010003040FF0101001F01011E00191DFB
:102FD0001712003C3C3C3C0000000000495E1124FC
:102FE0001FBECFEFD1E2DEBFCDBF00E00CBF1CE0C3
:102FF000A0E0B2E0EAE5F4EC00E00BBF02C007900D
:103000000D92A235B107D9F72FE0A2E5BCE001C0CF
:103010001D92AC36B207E1F717E1CFEED7E100E041
:1030200006C021970109802FFE010E940462CE3E56
:10303000D10780E00807A9F70E94D84F0C942B62B3
:103040000C940000CF93DF93CDB7DEB728970FB66F
:10305000F894DEBF0FBECDBF1092050D1092040D87
:1030600062ED76E08EEA9DE00E94DB4460E070E075
:103070008DE00E94314962EE76E08EEA9DE00E948A
:10308000DB446FEE76E08EEA9DE00E94DB446FEF5A
:103090007FEF8BE49EE00E94733A0E94B94F0E943A
:1030A000B4360E94B94FEE24EA94FE2C8CE00E94C4
:1030B0009F488130910569F590931D0D80931C0DFB
:1030C00010921B0D10921A0D00911A0D10911B0DEC
:1030D00017FDECCFB8018EE20E9431490F3F110578
:1030E00021F4F0921D0DE0921C0D8AE090E00E9408
:1030F000C14F8CE00E949F48892BC1F280911C0D2A
:1031000090911D0D080F191F10931B0D00931A0DA0
:10311000DBCF61E08EE20E94C7486EEF76E08EEA78
:103120009DE00E94DB448EEA9DE00E94AD446FEF7B
:103130007FEF8BE49EE00E94733A84E190E09093ED
:10314000580E8093570E82E390E090935A0E80932E
:10315000590E82E080935F0E64E177E08BE49EE09D
:103160000E94364554E1E52EF12C02E310E00E9466
:10317000BE38F092580EE092570E10935A0E0093FC
:10318000590E61E277E08EEA9DE00E94DB441092E6
:10319000860C1092850C1092840C1092830C0E9465
:1031A000C44A0E9427308091850C9091860C892B0F
:1031B00031F48091830C9091840C892BA9F164E403
:1031C00077E08EEA9DE00E94DB4467E676E08EEAD7
:1031D0009DE00E94DB446FEF7FEF8BE49EE00E9456
:1031E000733A1092580E1092570E10935A0E009385
:1031F000590E63E677E08BE49EE00E94DB4464E7CF
:1032000077E08BE49EE00E94DB4466E877E08BE4A5
:103210009EE00E94DB4460E977E08BE49EE00E9440
:1032200036450E94042DA3CF6EE977E08EEA9DE03B
:103230000E94DB446FEA77E08EEA9DE00E94DB4467
:103240001092580E1092570E10925A0E1092590E5C
:103250000E944B3165EC77E08EEA9DE00E94DB44F2
:1032600004E110E092ED292E312CEE24EA94FE2C9C
:1032700034EBC32ED12C42E3A42EB12C6FEF7FEFA1
:103280008BE49EE00E94733A1093580E0093570E01
:1032900082E390E090935A0E8093590E82E0982E2C
:1032A00090925F0E67ED77E08BE49EE00E943645DA
:1032B0000E94BE3840917F0C5091800C6091810C2F
:1032C0007091820C20E030E08BE49EE00E94EB44A1
:1032D0001093580E0093570E8AE590E090935A0E83
:1032E0008093590E64EE77E08BE49EE00E943645B1
:1032F00087E390E09093580E8093570E30925A0EC9
:103300002092590E6FEE77E08BE49EE00E943645E6
:103310008BE990E09093580E8093570E30925A0E9E
:103320002092590E63EF77E08BE49EE00E943645D1
:103330000E94042D10922A0D1092290D80917C0C70
:10334000811173C180917B0C882309F461C16FEFF7
:103350007FEF8BE49EE00E94733A0E94BE38109289
:103360005E0E10925D0E10925C0E10925B0E9092AB
:103370005F0E1093580E0093570E30925A0E209203
:10338000590E66EF77E08BE49EE00E94364510937D
:10339000580E0093570E82E390E090935A0E80935C
:1033A000590E67E078E08BE49EE00E94364584EB9E
:1033B00090E09093580E8093570E82E390E09093A4
:1033C0005A0E8093590E40917F0C5091800C609161
:1033D000810C7091820C21E030E08BE49EE00E9431
:1033E000EB440E94042D0E94CD4B0E94B94F812CCA
:1033F000912C82E00E949F48892B19F0812C912CFE
:10340000DFC020E030E048E454E460917F0C70912C
:10341000800C8091810C9091820C0E94A95F1816FB
:1034200044F30E94B94FF0925E0EE0925D0EF0926E
:103430005C0EE0925B0ED092580EC092570EB09286
:103440005A0EA092590E40907F0C5090800C6090C4
:10345000810C7090820C20E030E040E85FE3C30113
:10346000B2010E94455F60937F0C7093800C809343
:10347000810C9093820C22E030E0B301A2018BE436
:103480009EE00E94EB4410925E0E10925D0E109230
:103490005C0E10925B0ED092580EC092570EB092F6
:1034A0005A0EA092590E40917F0C5091800C609161
:1034B000810C7091820C21E030E08BE49EE00E9450
:1034C000EB448AE08816910440F48CE291E00E947B
:1034D000C14F9FEF891A990A8CCF64E170E080E0B8
:1034E00090E00E94424AF5CF20E030E040EA52E40A
:1034F00060917F0C7091800C8091810C9091820C76
:103500000E94F86018160CF05BC00E94B94FF09250
:103510005E0EE0925D0EF0925C0EE0925B0ED09239
:10352000580EC092570EB0925A0EA092590E40906B
:103530007F0C5090800C6090810C7090820C20E089
:1035400030E040E85FE3C301B2010E94445F609352
:103550007F0C7093800C8093810C9093820C21E0FF
:1035600030E0B301A2018BE49EE00E94EB44109294
:103570005E0E10925D0E10925C0E10925B0ED09259
:10358000580EC092570EB0925A0EA092590E40910A
:103590007F0C5091800C6091810C7091820C21E025
:1035A00030E08BE49EE00E94EB448AE088169104B0
:1035B00070F48CE291E00E94C14F9FEF891A990A42
:1035C00083E00E949F48892B09F48ECF07C064E1F5
:1035D00070E080E090E00E94424AEFCF84E00E94D9
:1035E0009F48892B09F0FFCE82E00E949F48892BDB
:1035F00009F45FC483E00E949F48892B09F459C4F1
:1036000084E00E949F48892B09F453C40E94F84E1D
:1036100080917A0C811132CE8091290D90912A0DE2
:10362000892B19F085E090E0CFC31092580E1092CC
:10363000570E10925A0E1092590E0E94F84E0E9488
:103640007C4B61E178E08EEA9DE00E94DB448EEAEB
:103650009DE00E94AD448EEA9DE00E94AD446FEF74
:103660007FEF8BE49EE00E94733A00E010E02EE1D1
:1036700030E048EC50E066E470E08BE49EE00E94AD
:10368000383C2EE130E048EC50E067E470E08BE439
:103690009EE00E94383C2EE130E048EC50E068E4C7
:1036A00070E08BE49EE00E94383C2EE130E048EC74
:1036B00050E069E470E08BE49EE00E94383C2EE12B
:1036C00030E048EC50E06AE470E08BE49EE00E9459
:1036D000383CC12CD12C72EDE72EF12C04E510E022
:1036E00022ED30E04CE350E06EEB70E088E490E0D7
:1036F0000E940C3300E010E02EE130E04EEB50E091
:1037000060EA70E08BE49EE00E94383C2EE130E0FD
:103710004EEB50E061EA70E08BE49EE00E94383CA2
:103720002EE130E04EEB50E062EA70E08BE49EE088
:103730000E94383C2EE130E04EEB50E063EA70E04E
:103740008BE49EE00E94383C2EE130E04EEB50E0EE
:1037500064EA70E08BE49EE00E94383C0EEA10E0E0
:1037600022ED30E046E950E066EE70E082EA90E05B
:103770000E940C33E0EFEE2EF12CF092580EE09206
:10378000570E82ED90E090935A0E8093590E10924E
:103790005E0E10925D0E10925C0E10925B0E0E94F7
:1037A000BE38F2E0DF2ED0925F0E86E490E0909378
:1037B000580E8093570E8EE190E090935A0E8093AE
:1037C000590E67E278E08BE49EE00E94364500E007
:1037D00010E028EB31E049E250E060E070E08BE47B
:1037E0009EE00E94A93C28EB31E04AE250E060E014
:1037F00070E08BE49EE00E94A93C28EB31E04BE2B4
:1038000050E060E070E08BE49EE00E94A93C28EB71
:1038100031E04CE250E060E070E08BE49EE00E941A
:10382000A93C28EB31E04DE250E060E070E08BE431
:103830009EE00E94A93C04E110E01093580E009312
:10384000570EA0E5AA2EB12CB0925A0EA092590E96
:1038500063E378E08BE49EE00E9436451093580EB7
:103860000093570E0CE810E010935A0E0093590E77
:103870006DE378E08BE49EE00E9436450E94BE38FE
:10388000D0925F0EBEEBCB2ED12CD092580EC092B0
:10389000570EB0925A0EA092590E40917F0C509143
:1038A000800C6091810C7091820C21E030E08BE4FF
:1038B0009EE00E94EB44D092580EC092570E109397
:1038C0005A0E0093590E4091FF0C5091000D6091DB
:1038D000010D7091020D21E030E08BE49EE00E942A
:1038E000EB448091FF0C9091000DA091010DB091DF
:1038F000020D8093140D9093150DA093160DB093A7
:10390000170D80917F0C9091800CA091810CB0914B
:10391000820C8093100D9093110DA093120DB09313
:10392000130D8EEA9DE00E94AD44F092580EE09295
:10393000570E8CED90E090935A0E8093590E109292
:103940005E0E10925D0E10925C0E10925B0E0E9445
:10395000BE3861E07BE08BE49EE00E943645109229
:10396000AB0E1092AA0E65E478E08EEA9DE00E940C
:10397000364560E374E08EEA9DE00E9436456AE4D5
:1039800078E08EEA9DE00E94364560E374E08EEABE
:103990009DE00E9436456EE478E08EEA9DE00E944C
:1039A000364560E374E08EEA9DE00E94364562E5AC
:1039B00078E08EEA9DE00E94364560E374E08EEA8E
:1039C0009DE00E94364565E578E08EEA9DE00E9424
:1039D000364560E374E08EEA9DE00E94364568E576
:1039E00078E08EEA9DE00E94364560E374E08EEA5E
:1039F0009DE00E9436456EE578E08EEA9DE00E94EB
:103A0000364560E374E08EEA9DE00E94364567E645
:103A100078E08EEA9DE00E94364560E374E08EEA2D
:103A20009DE00E9436456CE678E08EEA9DE00E94BB
:103A3000364560E374E08EEA9DE00E9436456AED0B
:103A400078E08EEA9DE00E94364560E374E08EEAFD
:103A50009DE00E94364564EE78E08EEA9DE00E948B
:103A6000364560E374E08EEA9DE00E9436456EEED6
:103A700078E08EEA9DE00E94364560E374E08EEACD
:103A80009DE00E94364562E778E08EEA9DE00E9464
:103A9000364560E374E08EEA9DE00E94364568E7B3
:103AA00078E08EEA9DE00E94364560E374E08EEA9D
:103AB0009DE00E9436456EE778E08EEA9DE00E9428
:103AC000364560E374E08EEA9DE00E94364564E886
:103AD00078E08EEA9DE00E94364560E374E08EEA6D
:103AE0009DE00E9436456AE878E08EEA9DE00E94FB
:103AF000364560E374E08EEA9DE00E9436456DE84D
:103B000078E08EEA9DE00E9436458EEA9DE00E94B4
:103B1000AD4481E090E09093050D8093040D1CED81
:103B2000212E312C0E94BE388CE00E949F48892BA8
:103B300009F098C060E070E08DE00E94314960E0DB
:103B400070E08BE49EE00E94733A8CE00E949F48F4
:103B5000892BD9F363E978E08EEA9DE00E94DB448B
:103B600083E090E09093050D8093040D6FEF7FEF5D
:103B70008BE49EE00E94733A0E94B43680907F0CE2
:103B80009090800CA090810CB090820C80920B0DD4
:103B900090920C0DA0920D0DB0920E0D10927F0C14
:103BA0001092800C1092810C1092820CEE24EA94F8
:103BB000FE2C8CE00E949F488130910569F590931E
:103BC0001D0D80931C0D10921B0D10921A0D00916B
:103BD0001A0D10911B0D17FDECCFB8018EE20E945B
:103BE00031490F3F110521F4F0921D0DE0921C0D9B
:103BF0008AE090E00E94C14F8CE00E949F48892B90
:103C0000C1F280911C0D90911D0D080F191F10938A
:103C10001B0D00931A0DDBCF61E08EE20E94C748B6
:103C20008CE00E949F48892BD9F380927F0C909260
:103C3000800CA092810CB092820C62EA78E08EEA4D
:103C40009DE00E94DB4481E080930F0D81E090E0D5
:103C50009093050D8093040D0E943E2D1092AB0EA3
:103C60001092AA0E412C512C54E1A52EB12C82E0C9
:103C70000E949F48892B09F023C183E00E949F483E
:103C8000892B09F438C11CC180910E0290910F025A
:103C9000892B09F47BC020E030E443E054E46091D8
:103CA0007F0C7091800C8091810C9091820C0E940D
:103CB000A95F18160CF464C060E070E08DE00E940B
:103CC0003149F092580EE092570ED0925A0EC0929F
:103CD000590EB0925E0EA0925D0EB0925C0EA09254
:103CE0005B0E40917F0C5091800C6091810C709123
:103CF000820C21E030E08BE49EE00E94EB442DEC4E
:103D00003CEC4CEC5DE3C301B2010E94FC602091ED
:103D10007F0C3091800C4091810C5091820C0E945C
:103D2000455FAB01BC0140937F0C5093800C6093C6
:103D3000810C7093820CF092580EE092570ED09244
:103D40005A0EC092590E10925E0E10925D0E109295
:103D50005C0E10925B0E21E030E08BE49EE00E944E
:103D6000EB440E94F84E48018FEF881A980A0930F8
:103D700011050CF0A9C688EC90E00E94C14F8401A7
:103D800082E00E949F48892B09F47ECF3EEB832E70
:103D9000912C40E5A42EB12CEE24EA94FE2C83E075
:103DA0000E949F48892B09F49DC084E00E949F488F
:103DB000892B09F4A5C68091290D90912A0D892B94
:103DC00009F4CDC787E090E09093190D8093180D0A
:103DD00060E070E08DE00E9431496DE07AE08EEAAB
:103DE0009DE00E9436456091180D7091190D8EEA84
:103DF0009DE00E94F1348091180D9091190D823050
:103E0000910561F083309105A1F0019701F56BE117
:103E10007AE08EEA9DE00E94DB4419C064E37AE018
:103E20008EEA9DE00E9436456091850C7091860C6B
:103E30000AC062E47AE08EEA9DE00E943645609115
:103E4000830C7091840C8EEA9DE00E94F1346FEF38
:103E50007FEF8BE49EE00E94733A1092580E10920E
:103E6000570E10925A0E1092590E8FEF9FEF9093AB
:103E70005E0E80935D0E90935C0E80935B0E83E0EC
:103E800080935F0E6FEF7FEF8BE49EE00E94733AAA
:103E90001092580E1092570E10925A0E1092590E00
:103EA00010927F0C1092800C1092810C1092820C58
:103EB000C8CB10927C0C10927B0C10927A0C94CB95
:103EC000412C512C80E8682E8FE3782E00E010E022
:103ED0009EEBE92EF12C20E5C22ED12CAA24AA9427
:103EE000BA2C4ECF80910E0290910F02892B11F0C7
:103EF0000C94FD285ACF89EB48168BE058060CF439
:103F0000D6C582E090E09093050D8093040D6FEA92
:103F100078E08EEA9DE00E94DB4460E070E08DE096
:103F20000E9431496DEB78E08EEA9DE00E94DB440F
:103F300032E0732E4EE1842E912C88E0E1E1F2E034
:103F4000DE01119601900D928A95E1F70E94BE382C
:103F500070925F0EB092580EA092570EB0925A0E09
:103F6000A092590E6FEF7FEF8BE49EE00E94733AB0
:103F70006EEC78E08BE49EE00E94DB449092580E59
:103F80008092570E82E390E090935A0E8093590EE0
:103F900080E090E00E945B2A63ED78E08BE49EE095
:103FA0000E9436459092580E8092570E80E590E020
:103FB00090935A0E8093590E6DED78E08BE49EE05D
:103FC0000E9436459092580E8092570E8EE690E0F1
:103FD00090935A0E8093590E67EE78E08BE49EE042
:103FE0000E9436459092580E8092570E86E990E0D6
:103FF00090935A0E8093590E61EF78E08BE49EE027
:104000000E9436459092580E8092570E02ED10E0B5
:1040100010935A0E0093590E6DEF78E08BE49EE0FA
:104020000E94364581E990E09093580E8093570E98
:1040300010935A0E0093590E62E079E08BE49EE0F3
:104040000E9436451093580E0093570E10935A0E47
:104050000093590E65E079E08BE49EE00E943645BE
:1040600082E00E949F48892B09F429C583E00E94C1
:104070009F48892B09F423C584E00E949F48892B1F
:1040800009F41DC523E0E22EF12C00E010E00E94AF
:10409000CD4B0E94B94F82E00E949F48892B61F569
:1040A0000F5F1F4F037011279FEFE91AF90A83E092
:1040B000E822FF24F801EE0FFF1F81E090E08C0F53
:1040C0009D1FE80FF91F0190F081E02D80E090E046
:1040D0001995F701EE0FFF1F81E090E08C0F9D1FF7
:1040E000E80FF91F0190F081E02D8FEF9FEF1995F8
:1040F0008AEF90E00E94C14F83E00E949F48892B85
:1041000009F0B3C40130110509F45AC224F4012B9B
:1041100009F42EC1A7C40230110509F46DC30330A0
:10412000110509F09FC481E080935F0EB092580E94
:10413000A092570E90925A0E8092590E6FEF7FEF19
:104140008BE49EE00E94733A0E944B3167E379E072
:104150008BE49EE00E94364506E910E01093580E6D
:104160000093570E90925A0E8092590E4091720C05
:104170005091730C6091740C7091750C20E030E0DC
:104180008BE49EE00E94EB4466E773E08BE49EE0E4
:104190000E94DB44B092580EA092570E6CE3E62EBC
:1041A000F12CF0925A0EE092590E6FE573E08BE419
:1041B0009EE00E9436451093580E0093570EF092E1
:1041C0005A0EE092590E4091760C5091770C609106
:1041D000780C7091790C22E030E08BE49EE00E9434
:1041E000EB446FE379E08BE49EE00E94DB44B09205
:1041F000580EA092570E7AE5E72EF12CF0925A0E47
:10420000E092590E6CE773E08BE49EE00E94364525
:104210001093580E0093570EF0925A0EE092590EDA
:1042200040916E0C50916F0C6091700C7091710CFC
:1042300022E030E08BE49EE00E94EB4466E479E00B
:104240008BE49EE00E94DB44B092580EA092570E81
:10425000E8E7EE2EF12CF0925A0EE092590E6DE442
:1042600079E08BE49EE00E9436451093580E00934F
:10427000570EF0925A0EE092590E40916A0C5091EE
:104280006B0C60916C0C70916D0C22E030E08BE453
:104290009EE00E94EB446BE579E08BE49EE00E9497
:1042A000DB44B092580EA092570E10935A0E009312
:1042B000590E61E679E08BE49EE00E94364510934A
:1042C000580E0093570E10935A0E0093590E4091BA
:1042D0000A0250910B0260910C0270910D0220E0D5
:1042E00030E08BE49EE00E94EB4468E679E08BE4EA
:1042F0009EE00E943645409106025091070260916F
:1043000008027091090220E030E08BE49EE00E94F8
:10431000EB4468E679E08BE49EE00E9436454091EC
:10432000020250910302609104027091050220E0A4
:1043300030E08BE49EE00E94EB446CE073E08BE4A1
:104340009EE00E94364570925F0E81E990E0909366
:10435000580E8093570E82ED90E090935A0E809302
:10436000590E62E079E08BE49EE00E94364569C315
:104370006FEF7FEF8BE49EE00E94733A10925E0E27
:1043800010925D0E10925C0E10925B0E70925F0E9A
:10439000B092580EA092570E90925A0E8092590EDB
:1043A0006AE079E08BE49EE00E943645B092580EB8
:1043B000A092570E86E490E090935A0E8093590E87
:1043C0006DE07CE08BE49EE00E94364540910A025D
:1043D00050910B0260910C0270910D0222E030E0CE
:1043E0008BE49EE00E94EB4400E010E02EE130E020
:1043F00048EC50E066E470E08BE49EE00E94383CBC
:104400002EE130E048EC50E067E470E08BE49EE0A1
:104410000E94383C2EE130E048EC50E068E470E067
:104420008BE49EE00E94383C2EE130E048EC50E006
:1044300069E470E08BE49EE00E94383C2EE130E0BD
:1044400048EC50E06AE470E08BE49EE00E94383C67
:10445000C12CD12CB2EDEB2EF12C04E510E022EDB5
:1044600030E04CE350E06EEB70E088E490E00E94B6
:104470000C3300E010E02EE130E04EEB50E060EA5B
:1044800070E08BE49EE00E94383C2EE130E04EEB81
:1044900050E061EA70E08BE49EE00E94383C2EE13F
:1044A00030E04EEB50E062EA70E08BE49EE00E9468
:1044B000383C2EE130E04EEB50E063EA70E08BE4F4
:1044C0009EE00E94383C2EE130E04EEB50E064EA82
:1044D00070E08BE49EE00E94383C0EEA10E022ED92
:1044E00030E046E950E066EE70E082EA90E00E943B
:1044F0000C3380EF90E09093580E8093570E8CED24
:1045000090E090935A0E8093590E62E079E08BE42C
:104510009EE00E9436450E94042D80917C0C8823E9
:1045200011F1C0900A02D0900B02E0900C02F090C2
:104530000D0220E030E048E453E4C701B6010E94D8
:10454000A95F181684F020E030E040E85FE3C7017F
:10455000B6010E94455F60930A0270930B0280933C
:104560000C0290930D0280917B0C882309F1C0907E
:104570000A02D0900B02E0900C02F0900D0220E0B5
:1045800030E0A901C701B6010E94F860181684F452
:1045900020E030E040E85FE3C701B6010E94445FDD
:1045A00060930A0270930B0280930C0290930D02A9
:1045B00080917A0C882309F4DBCE61E179E037C27F
:1045C0006FEF7FEF8BE49EE00E94733A10925E0ED5
:1045D00010925D0E10925C0E10925B0E70925F0E48
:1045E000B092580EA092570E90925A0E8092590E89
:1045F00069E179E08BE49EE00E943645B092580E66
:10460000A092570E86E490E090935A0E8093590E34
:1046100067E17CE08BE49EE00E9436454091060213
:1046200050910702609108027091090222E030E087
:104630008BE49EE00E94EB4400E010E02EE130E0CD
:1046400048EC50E066E470E08BE49EE00E94383C69
:104650002EE130E048EC50E067E470E08BE49EE04F
:104660000E94383C2EE130E048EC50E068E470E015
:104670008BE49EE00E94383C2EE130E048EC50E0B4
:1046800069E470E08BE49EE00E94383C2EE130E06B
:1046900048EC50E06AE470E08BE49EE00E94383C15
:1046A000C12CD12CA2EDEA2EF12C04E510E022ED74
:1046B00030E04CE350E06EEB70E088E490E00E9464
:1046C0000C3300E010E02EE130E04EEB50E060EA09
:1046D00070E08BE49EE00E94383C2EE130E04EEB2F
:1046E00050E061EA70E08BE49EE00E94383C2EE1ED
:1046F00030E04EEB50E062EA70E08BE49EE00E9416
:10470000383C2EE130E04EEB50E063EA70E08BE4A1
:104710009EE00E94383C2EE130E04EEB50E064EA2F
:1047200070E08BE49EE00E94383C0EEA10E022ED3F
:1047300030E046E950E066EE70E082EA90E00E94E8
:104740000C3380EF90E09093580E8093570E8CEDD1
:1047500090E090935A0E8093590E62E079E08BE4DA
:104760009EE00E9436450E94042D80917C0C882397
:10477000B1F020E030E040E85FE360910602709124
:10478000070280910802909109020E94455F6093A0
:1047900006027093070280930802909309028091A9
:1047A0007B0C882309F1C0900602D0900702E090AC
:1047B0000802F090090220E030E0A901C701B6012B
:1047C0000E94F860181684F420E030E040E85FE3CF
:1047D000C701B6010E94445F60930602709307020E
:1047E000809308029093090280917A0C882309F43F
:1047F000E7CE60E279E01BC16FEF7FEF8BE49EE0D4
:104800000E94733A10925E0E10925D0E10925C0E32
:1048100010925B0E70925F0EB092580EA092570EDF
:1048200090925A0E8092590E68E279E08BE49EE0F5
:104830000E943645B092580EA092570E86E490E042
:1048400090935A0E8093590E61E27CE08BE49EE0D7
:104850000E94364540910202509103026091040289
:104860007091050222E030E08BE49EE00E94EB4470
:1048700000E010E02EE130E048EC50E066E470E04B
:104880008BE49EE00E94383C2EE130E048EC50E0A2
:1048900067E470E08BE49EE00E94383C2EE130E05B
:1048A00048EC50E068E470E08BE49EE00E94383C05
:1048B0002EE130E048EC50E069E470E08BE49EE0EB
:1048C0000E94383C2EE130E048EC50E06AE470E0B1
:1048D0008BE49EE00E94383CC12CD12CF2EDEF2EEF
:1048E000F12C04E510E022ED30E04CE350E06EEBFB
:1048F00070E088E490E00E940C3300E010E02EE1CC
:1049000030E04EEB50E060EA70E08BE49EE00E9405
:10491000383C2EE130E04EEB50E061EA70E08BE491
:104920009EE00E94383C2EE130E04EEB50E062EA1F
:1049300070E08BE49EE00E94383C2EE130E04EEBCC
:1049400050E063EA70E08BE49EE00E94383C2EE188
:1049500030E04EEB50E064EA70E08BE49EE00E94B1
:10496000383C0EEA10E022ED30E046E950E066EE19
:1049700070E082EA90E00E940C3380EF90E0909328
:10498000580E8093570E8CED90E090935A0E8093C2
:10499000590E62E079E08BE49EE00E9436450E9469
:1049A000042D80917C0C8823B1F020E030E040E8B9
:1049B0005FE3609102027091030280910402909182
:1049C00005020E94455F6093020270930302809388
:1049D00004029093050280917B0C882309F1C0901A
:1049E0000202D0900302E0900402F090050220E061
:1049F00030E0A901C701B6010E94F860181684F4DE
:104A000020E030E040E85FE3C701B6010E94445F68
:104A10006093020270930302809304029093050254
:104A200080917A0C882309F4E7CE6FE279E08EEA70
:104A30009DE00E94DB4481CA83E00E949F48892B4D
:104A400031F482E00E949F48892BD9F3F5CF84E0AE
:104A50000E949F48892BA9F383E00E949F48892BDD
:104A6000D9F76BCA0E943E2D68CA84E00E949F4815
:104A7000892B09F00CCB0E943E2D6CE679E08EEA82
:104A80009DE00E94DB4481E080930F0D1092AB0EFD
:104A90001092AA0E6EE779E08EEA9DE00E94DB4458
:104AA00081E090E09093050D8093040DE0C892E3BF
:104AB000490E511C82E390E00E94C14FD8C80E9469
:104AC000CD4B0E94B94FCCCA0E5F1F4F92E18916A1
:104AD00091045CF488EC90E00E94C14F412C512C71
:104AE00020E2622E21E4722E4BC988EC90E00E94F5
:104AF000C14F412C512C98E4692E92E4792E40C983
:104B000080910E0290910F02892B09F494C06DE8F8
:104B100079E08EEA9DE00E94DB4460E070E08DE089
:104B20000E94314980907F0C9090800CA090810C65
:104B3000B090820C80920B0D90920C0DA0920D0DF6
:104B4000B0920E0D1092100D1092110D1092120DC8
:104B50001092130D10927F0C1092800C1092810C09
:104B60001092820C10920F0210920E020E94BE3818
:104B70008FEF9FEF90935E0E80935D0E90935C0E8F
:104B800080935B0E82E080935F0EAEEBEA2EF12CF9
:104B9000F092580EE092570E00E510E010935A0E76
:104BA0000093590E21E030E0B501A4018BE49EE0B2
:104BB0000E94EB4480EF90E09093580E8093570E44
:104BC00030925A0E2092590E61E07BE08BE49EE019
:104BD0000E94364510925E0E10925D0E10925C0E91
:104BE00010925B0E80EF90E09093580E8093570EDA
:104BF00030925A0E2092590E68EA79E08BE49EE0DA
:104C00000E943645F092580EE092570E10935A0EBD
:104C10000093590E61E07BE08BE49EE00E943645F4
:104C200084E00E949F48892BD9F38DE491E00E9493
:104C3000C14F0C94921D6BEA79E08EEA9DE00E94D0
:104C4000DB4460E070E08DE00E94314980910B0D03
:104C500090910C0DA0910D0DB0910E0D80937F0CD5
:104C60009093800CA093810CB093820C8093100DD4
:104C70009093110DA093120DB093130D0E94BE38A6
:104C800081E090E090930F0280930E02FEEBEF2EF6
:104C9000F12CF092580EE092570E00E510E01093C0
:104CA0005A0E0093590E8FEF9FEF90935E0E8093F4
:104CB0005D0E90935C0E80935B0E61E07BE08BE475
:104CC0009EE00E94364580EF90E09093580E8093CE
:104CD000570E30925A0E2092590E68EA79E08BE412
:104CE0009EE00E94364510925E0E10925D0E10926C
:104CF0005C0E10925B0E80EF90E09093580E8093C4
:104D0000570E30925A0E2092590E61E07BE08BE4F0
:104D10009EE00E943645F092580EE092570E109396
:104D20005A0E0093590E10925E0E10925D0E109264
:104D30005C0E10925B0E40917F0C5091800C609144
:104D4000810C7091820C21E030E08BE49EE00E94A7
:104D5000EB4484E00E949F48892BD9F366CF0E94E0
:104D6000B94F8091850C9091860C892B19F082E0C7
:104D700090E02AC80E94CD4B60915E0C70915F0C50
:104D80008091600C9091610C0E9415607B01709382
:104D90000A0D6093090D8DE00E9431490E94752F24
:104DA00020911E0D30911F0D4091200D5091210D2D
:104DB0006091220D7091230D8091240D9091250D0D
:104DC0000E94445F20E030E040E251E40E94FC6039
:104DD0006093720C7093730C8093740C9093750CA9
:104DE00020E030E84BEB54E40E94F86018162CF0F9
:104DF0001092840C1092830C06C081E090E0909396
:104E0000840C8093830C8091830C9091840C892B6B
:104E100021F083E090E00C94E41E0091AA0E109122
:104E2000AB0E0130110509F046C080E00E94F84940
:104E3000BC01990F880B990B0E9448604B015C01E3
:104E400060931E0D70931F0D8093200D9093210D84
:104E500020E030E04AEF53E40E94A95F87FF0AC0D8
:104E600083E090E09093190D8093180D1093840CBB
:104E70000093830C95E6E916F104B4F020E030E0ED
:104E800046E154E4C501B4010E94F860181664F4C8
:104E900083E090E09093190D8093180D82E090E0EC
:104EA0009093840C8093830C8091040D9091050D58
:104EB000019709F452D48091AA0E9091AB0E0297FB
:104EC00011F00C94921D60E070E08DE00E94314979
:104ED0000E94B94F65E070E080E090E00E94424A95
:104EE0000E947C4B8091850C9091860C049709F070
:104EF00057C063EA79E08EEA9DE00E94DB4465ECEE
:104F000079E08EEA9DE00E94DB441092860C1092BC
:104F1000850C8091140D9091150DA091160DB091F6
:104F2000170D8093FF0C9093000DA093010DB0938B
:104F3000020D8091270D9091280D01969093280DD8
:104F40008093270D6FEF79E08EEA9DE00E94364551
:104F50006091270D7091280D8EEA9DE00E94F1343A
:104F600065E07AE08EEA9DE00E94364560913F0D53
:104F70007091400D8091410D9091420D28EE33E0EB
:104F800040E050E00E94C661BA01A90121E030E092
:104F90008EEA9DE00E94C0448EEA9DE00E94AD44EE
:104FA0004090140D5090150D6090160D7090170DD7
:104FB000A30192016091FF0C7091000D8091010D91
:104FC0009091020D0E94A95F811105C080910F0D83
:104FD000882309F494C00FEF1FEF10935E0E009327
:104FE0005D0E10935C0E00935B0E62E0B62EB092E5
:104FF0005F0E7EEBC72ED12CD092580EC092570E6A
:10500000ECE8EE2EF12CF0925A0EE092590E21E0CF
:1050100030E0B301A2018BE49EE00E94EB441092C9
:105020005E0E10925D0E10925C0E10925B0EB092AE
:105030005F0ED092580EC092570EF0925A0EE09228
:10504000590E4091FF0C5091000D6091010D70912F
:10505000020D21E030E08BE49EE00E94EB44809161
:10506000FF0C9091000DA091010DB091020D809365
:10507000140D9093150DA093160DB093170D20E00D
:1050800030E0A90160915E0C70915F0C8091600C22
:105090009091610C0E94F86018168CF48AEA90E0F6
:1050A0009093580E8093570EF0925A0EE092590E3C
:1050B00066EB7AE08BE49EE00E94364520C08AEAE7
:1050C00090E09093580E8093570EF0925A0EE09213
:1050D000590E10935E0E00935D0E10935C0E0093BC
:1050E0005B0E66EB7AE08BE49EE00E943645109200
:1050F0005E0E10925D0E10925C0E10925B0E809010
:10510000100D9090110DA090120DB090130DA501EF
:10511000940160917F0C7091800C8091810C909132
:10512000820C0E94A95F882309F458C060E070E0F7
:105130008DE00E9431498FEF9FEF90935E0E809338
:105140005D0E90935C0E80935B0E42E0D42ED09265
:105150005F0E5EEBE52EF12CF092580EE092570EAA
:1051600000E510E010935A0E0093590E21E030E054
:10517000B501A4018BE49EE00E94EB4410925E0E08
:1051800010925D0E10925C0E10925B0ED0925F0E2C
:10519000F092580EE092570E10935A0E0093590E4B
:1051A00040917F0C5091800C6091810C7091820C29
:1051B00021E030E08BE49EE00E94EB4480917F0C84
:1051C0009091800CA091810CB091820C8093100D75
:1051D0009093110DA093120DB093130D1092AB0E7E
:1051E0001092AA0E10920F0D6091090D70910A0D88
:1051F0008DE00E9431490C94921D20E030E0A9011D
:1052000060917F0C7091800C8091810C9091820C48
:105210000E94F86087FF02C00C94CF1E60E070E02F
:105220008DE00E9431499092580E8092570EB092B4
:105230005A0EA092590EF0925E0EE0925D0EF09220
:105240005C0EE0925B0E40917F0C5091800C60915F
:10525000810C7091820C21E030E08BE49EE00E9492
:10526000EB442DEC3CEC4CEC5DE3C301B2010E943D
:10527000FC609B01AC0160917F0C7091800C80916F
:10528000810C9091820C0E94445F60937F0C70931C
:10529000800C8093810C9093820C0E94F84E409178
:1052A0007F0C5091800C6091810C7091820C21E0F8
:1052B00030E08BE49EE00E94EB449092580E809286
:1052C000570EB0925A0EA092590E10925E0E109286
:1052D0005D0E10925C0E10925B0E40917F0C50910F
:1052E000800C6091810C7091820C21E030E08BE4A5
:1052F0009EE00E94EB4468018FEFC81AD80A0A307A
:1053000011053CF484E690E00E94C14F86010C94A4
:10531000CF1E0E5F1F4F94E1C916D10464F484E6DA
:1053200090E00E94C14F412C512C80E2682E81E414
:10533000782E0C94CF1E84E690E00E94C14F412C41
:10534000512CB8E46B2EB2E47B2E0C94CF1E85ED6D
:105350008093BC008091BC0084FDFCCF1092880D2E
:1053600008954091640D262F30E0240F311D213225
:105370003105DCF42091880D2430C9F4FC0180E073
:1053800090E0861758F43091640D2191DC01AC5BFC
:10539000B24FA30FB11D2C930196F3CF8091640DF2
:1053A000680F6093640D80E0089581E0089582E0C5
:1053B00008958FEF9FEF08958FEF9FEF08958091ED
:1053C000430D90E09195819591090895CF93DF93D6
:1053D000CB01EA01642FC5DFCE01DF91CF910895A3
:1053E000CF93DF931F92CDB7DEB7698361E0CE0123
:1053F0000196B7DF81E090E00F90DF91CF910895A3
:10540000089580E090E00895CF92DF92EF92FF92AE
:105410000F931F936C0186E9E82EF12C0AE010E04F
:1054200028E730E04AE050E067E870E08EE190E085
:105430000E940C331F910F91FF90EF90DF90CF905F
:105440000895CF92DF92EF92FF920F931F936C011A
:1054500080E7E82EF12C0AE010E022E530E04AE097
:1054600050E061E670E08EE190E00E940C331F9105
:105470000F91FF90EF90DF90CF900895CF92DF9241
:10548000EF92FF920F931F936C0180E5E82EF12CB1
:105490000AE010E022E330E04AE050E061E470E02E
:1054A0008EE190E00E940C331F910F91FF90EF90DE
:1054B000DF90CF900895CF92DF92EF92FF920F93FB
:1054C0001F936C0187E3E82EF12C0AE010E029E13C
:1054D00030E04AE050E068E270E08EE190E00E9447
:1054E0000C331F910F91FF90EF90DF90CF900895B4
:1054F0001F920F920FB60F9211240BB60F922F939B
:105500003F934F935F936F937F938F939F93AF934B
:10551000BF93EF93FF938091B900887F803609F4A1
:105520009CC068F5883209F45BC090F4803109F4BE
:1055300054C038F4882309F4F2C0883009F44DC00F
:10554000F1C0883109F44CC0803209F45DC0EAC072
:10555000803409F468C048F4803309F455C08833B6
:1055600009F0E0C08093870DD4C0803509F44FC0A6
:10557000883509F45DC0883409F0D4C0D2C08839B8
:1055800009F4C3C0A8F4883709F467C038F4883632
:1055900009F463C0803709F460C0C4C0883809F4D6
:1055A000B4C0803909F45FC0803809F0BBC05BC06B
:1055B000803B09F484C038F4803A09F466C0883A24
:1055C00009F47DC0AFC0803C09F4A3C0883C09F455
:1055D000A0C0883B09F486C0A5C08091AD0D10C065
:1055E0009091AC0D8091AB0D981770F5E091AC0DDA
:1055F00081E08E0F8093AC0DF0E0E557F24F808193
:105600008093BB0085EC82C08093870D8AC0E091B7
:10561000AC0D81E08E0F8093AC0D8091BB00F0E06B
:10562000E557F24F80839091AC0D8091AB0D6AC02D
:10563000E091AC0D81E08E0F8093AC0D8091BB00AA
:10564000F0E0E557F24F808380918A0D811169C0A7
:1056500081E08093890D84EA5DC083E08093880DAA
:105660001092860DCFCF8091860D803208F04DC00C
:10567000E091860D81E08E0F8093860D8091BB00B6
:10568000F0E0EA59F24F8083BDCF85EC8093BC00F7
:105690001092880D8091860D803230F4E091860D55
:1056A000F0E0EA59F24F10826091860D70E086E6D4
:1056B0009DE0E0E0F0E019951092860D33C084E0A3
:1056C0008093880D1092650D1092640DE0E0F0E07B
:1056D00019958091640D811105C081E08093640D5E
:1056E0001092440DE091650D81E08E0F8093650D61
:1056F000F0E0EC5BF24F80818093BB009091650DF0
:105700008091640D981708F47DCF85E88093BC00E4
:1057100009C085EC8093BC001092880D03C01092E4
:10572000870D15DEFF91EF91BF91AF919F918F9102
:105730007F916F915F914F913F912F910F900BBE91
:105740000F900FBE0F901F90189508958CBD9DBDB2
:1057500008950C94365F0C942E5F60913F0D70910C
:10576000400D8091410D9091420D28EE33E040E0D4
:1057700050E00E94C661BA01A90121E08EEA9DE0D5
:105780000E948E4360E374E08EEA9DE00E943645FD
:1057900040913B0D50913C0D60913D0D70913E0D3F
:1057A00022E030E08EEA9DE00E94EB4460E374E08A
:1057B0008EEA9DE00E94364540915E0C50915F0C50
:1057C0006091600C7091610C21E030E08EEA9DE008
:1057D0000E94EB4460E374E08EEA9DE00E9436454F
:1057E0006091390D70913A0D4AE050E08EEA9DE0EB
:1057F0000E94EC4460E374E08EEA9DE00E9436452E
:105800006091370D7091380D4AE050E08EEA9DE0CE
:105810000E94EC4460E374E08EEA9DE00E9436450D
:1058200080E00E94F8494AE050E0BC018EEA9DE029
:105830000E94EC4460E374E08EEA9DE00E943645ED
:1058400040917F0C5091800C6091810C7091820C82
:1058500021E030E08EEA9DE00E94EB4460E374E0DA
:105860008EEA9DE00E9436454091660C5091670C8F
:105870006091680C7091690C21E030E08EEA9DE047
:105880000E94EB4460E374E08EEA9DE00E9436459E
:105890004091330D5091340D6091350D7091360D5E
:1058A00021E030E08EEA9DE00E94EB4460E374E08A
:1058B0008EEA9DE00E94364540910A0250910B020B
:1058C00060910C0270910D0221E030E08EEA9DE0C3
:1058D0000E94EB4460E374E08EEA9DE00E9436454E
:1058E00040910602509107026091080270910902EE
:1058F00021E030E08EEA9DE00E94EB4460E374E03A
:105900008EEA9DE00E9436454091020250910302CA
:10591000609104027091050221E030E08EEA9DE082
:105920000E94EB4460E374E08EEA9DE00E943645FD
:1059300040912F0D5091300D6091310D7091320DCD
:1059400021E030E08EEA9DE00E94EB4460E374E0E9
:105950008EEA9DE00E94364540915A0C50915B0CB6
:1059600060915C0C70915D0C21E030E08EEA9DE06E
:105970000E94EB4460E374E08EEA9DE00E943645AD
:1059800040912B0D50912C0D60912D0D70912E0D8D
:1059900021E030E08EEA9DE00E94EB4460E374E099
:1059A0008EEA9DE00E9436456091290D70912A0D86
:1059B00041E050E08EEA9DE00E94EC4460E374E038
:1059C0008EEA9DE00E9436456091270D7091280D6A
:1059D00041E050E08EEA9DE00E94EC4460E374E018
:1059E0008EEA9DE00E9436456091040D7091050D90
:1059F00041E050E08EEA9DE00E94EC446AE47BE0E6
:105A00008EEA9DE00C94364582E00E949F48892BE7
:105A100051F083E00E949F48892B29F084E00E9486
:105A20009F48892B29F40E94CD4B0E94B94FECCF9F
:105A300010927C0C10927B0C10927A0C82E00E94E7
:105A40009F48892B21F481E080937C0C089583E0AA
:105A50000E949F48892B21F481E080937B0C08955C
:105A600084E00E949F48892B21F481E080937A0C86
:105A700008950E94CD4B0E94B94FE0CFCF92DF92A4
:105A8000EF92FF920F931F93CF93DF9362E57AE03B
:105A90008EEA9DE00E94DB446FEF7FEF8BE49EE097
:105AA0000E94733A86E490E09093580E8093570ECC
:105AB0008EE190E090935A0E8093590E67E278E061
:105AC0008BE49EE00E94364500E010E028EB31E0D8
:105AD00049E250E060E070E08BE49EE00E94A93C67
:105AE00028EB31E04AE250E060E070E08BE49EE0B9
:105AF0000E94A93C28EB31E04BE250E060E070E00E
:105B00008BE49EE00E94A93C28EB31E04CE250E09F
:105B100060E070E08BE49EE00E94A93C28EB31E05D
:105B20004DE250E060E070E08BE49EE00E94A93C12
:105B30008EEB90E09093580E8093570E80E590E0A6
:105B400090935A0E8093590EC0907F0CD090800C89
:105B5000E090810CF090820C20E030E0A901C701B8
:105B6000B6010E94F8601816BCF421E030E0B701DD
:105B7000A6018BE49EE00E94EB4480EF90E09093BE
:105B8000580E8093570E8CED90E090935A0E8093B0
:105B9000590E61E07BE014C061E07BE08BE49EE0A5
:105BA0000E94364580EF90E09093580E8093570EF8
:105BB0008CED90E090935A0E8093590E68EA79E04C
:105BC0008BE49EE00E943645C4E1D0E0D093580EAD
:105BD000C093570E80E590E090935A0E8093590E33
:105BE00063E378E08BE49EE00E943645D093580E44
:105BF000C093570ECCE8D0E0D0935A0EC093590E04
:105C00006DE378E08BE49EE00E9436458EEB90E0F9
:105C10009093580E8093570ED0935A0EC093590EFE
:105C200000E010E02EE130E048EC50E066E470E087
:105C30008BE49EE00E94383C2EE130E048EC50E0DE
:105C400067E470E08BE49EE00E94383C2EE130E097
:105C500048EC50E068E470E08BE49EE00E94383C41
:105C60002EE130E048EC50E069E470E08BE49EE027
:105C70000E94383C2EE130E048EC50E06AE470E0ED
:105C80008BE49EE00E94383CC12CD12C82EDE82EA2
:105C9000F12C04E510E022ED30E04CE350E06EEB37
:105CA00070E088E490E0B8D400E010E02EE130E04D
:105CB0004EEB50E060EA70E08BE49EE00E94383CDE
:105CC0002EE130E04EEB50E061EA70E08BE49EE0C4
:105CD0000E94383C2EE130E04EEB50E062EA70E08A
:105CE0008BE49EE00E94383C2EE130E04EEB50E029
:105CF00063EA70E08BE49EE00E94383C2EE130E0E5
:105D00004EEB50E064EA70E08BE49EE00E94383C89
:105D10000EEA10E022ED30E046E950E066EE70E079
:105D200082EA90E079D480EF90E09093580E8093CF
:105D3000570E8CED90E090935A0E8093590EDF91A0
:105D4000CF911F910F91FF90EF90DF90CF9008952A
:105D5000CF92DF92EF92FF9220911E0D30911F0D96
:105D60004091200D5091210D6091220D7091230DD5
:105D70008091240D9091250D0E94445F20E030E039
:105D800040E251E40E94FC606B017C0120E030E0C5
:105D9000A9010E94A95F87FD09C0C092720CD09230
:105DA000730CE092740CF092750C08C01092720C97
:105DB0001092730C1092740C1092750CFF90EF906F
:105DC000DF90CF90089520E030E04AE754E46091FE
